{
    "_format": "hh-sol-artifact-1",
    "contractName": "ContentBridge",
    "sourceName": "contracts/ContentBridge.sol",
    "abi": [
        {
            "inputs": [],
            "stateMutability": "nonpayable",
            "type": "constructor"
        },
        {
            "inputs": [],
            "name": "AccessControlBadConfirmation",
            "type": "error"
        },
        {
            "inputs": [
                {
                    "internalType": "address",
                    "name": "account",
                    "type": "address"
                },
                {
                    "internalType": "bytes32",
                    "name": "neededRole",
                    "type": "bytes32"
                }
            ],
            "name": "AccessControlUnauthorizedAccount",
            "type": "error"
        },
        {
            "anonymous": false,
            "inputs": [
                {
                    "indexed": true,
                    "internalType": "uint256",
                    "name": "id",
                    "type": "uint256"
                },
                {
                    "indexed": false,
                    "internalType": "string",
                    "name": "hash",
                    "type": "string"
                },
                {
                    "indexed": false,
                    "internalType": "string",
                    "name": "metadata",
                    "type": "string"
                },
                {
                    "indexed": true,
                    "internalType": "address",
                    "name": "uploader",
                    "type": "address"
                }
            ],
            "name": "ContentAdded",
            "type": "event"
        },
        {
            "anonymous": false,
            "inputs": [
                {
                    "indexed": true,
                    "internalType": "bytes32",
                    "name": "role",
                    "type": "bytes32"
                },
                {
                    "indexed": true,
                    "internalType": "bytes32",
                    "name": "previousAdminRole",
                    "type": "bytes32"
                },
                {
                    "indexed": true,
                    "internalType": "bytes32",
                    "name": "newAdminRole",
                    "type": "bytes32"
                }
            ],
            "name": "RoleAdminChanged",
            "type": "event"
        },
        {
            "anonymous": false,
            "inputs": [
                {
                    "indexed": true,
                    "internalType": "bytes32",
                    "name": "role",
                    "type": "bytes32"
                },
                {
                    "indexed": true,
                    "internalType": "address",
                    "name": "account",
                    "type": "address"
                },
                {
                    "indexed": true,
                    "internalType": "address",
                    "name": "sender",
                    "type": "address"
                }
            ],
            "name": "RoleGranted",
            "type": "event"
        },
        {
            "anonymous": false,
            "inputs": [
                {
                    "indexed": true,
                    "internalType": "bytes32",
                    "name": "role",
                    "type": "bytes32"
                },
                {
                    "indexed": true,
                    "internalType": "address",
                    "name": "account",
                    "type": "address"
                },
                {
                    "indexed": true,
                    "internalType": "address",
                    "name": "sender",
                    "type": "address"
                }
            ],
            "name": "RoleRevoked",
            "type": "event"
        },
        {
            "inputs": [],
            "name": "ADMIN_ROLE",
            "outputs": [
                {
                    "internalType": "bytes32",
                    "name": "",
                    "type": "bytes32"
                }
            ],
            "stateMutability": "view",
            "type": "function"
        },
        {
            "inputs": [],
            "name": "DEFAULT_ADMIN_ROLE",
            "outputs": [
                {
                    "internalType": "bytes32",
                    "name": "",
                    "type": "bytes32"
                }
            ],
            "stateMutability": "view",
            "type": "function"
        },
        {
            "inputs": [
                {
                    "internalType": "string",
                    "name": "_hash",
                    "type": "string"
                },
                {
                    "internalType": "string",
                    "name": "_metadata",
                    "type": "string"
                }
            ],
            "name": "addContent",
            "outputs": [],
            "stateMutability": "nonpayable",
            "type": "function"
        },
        {
            "inputs": [],
            "name": "contentCount",
            "outputs": [
                {
                    "internalType": "uint256",
                    "name": "",
                    "type": "uint256"
                }
            ],
            "stateMutability": "view",
            "type": "function"
        },
        {
            "inputs": [
                {
                    "internalType": "uint256",
                    "name": "",
                    "type": "uint256"
                }
            ],
            "name": "contents",
            "outputs": [
                {
                    "internalType": "string",
                    "name": "hash",
                    "type": "string"
                },
                {
                    "internalType": "string",
                    "name": "metadata",
                    "type": "string"
                },
                {
                    "internalType": "address",
                    "name": "uploader",
                    "type": "address"
                }
            ],
            "stateMutability": "view",
            "type": "function"
        },
        {
            "inputs": [
                {
                    "internalType": "bytes32",
                    "name": "role",
                    "type": "bytes32"
                }
            ],
            "name": "getRoleAdmin",
            "outputs": [
                {
                    "internalType": "bytes32",
                    "name": "",
                    "type": "bytes32"
                }
            ],
            "stateMutability": "view",
            "type": "function"
        },
        {
            "inputs": [
                {
                    "internalType": "bytes32",
                    "name": "role",
                    "type": "bytes32"
                },
                {
                    "internalType": "address",
                    "name": "account",
                    "type": "address"
                }
            ],
            "name": "grantRole",
            "outputs": [],
            "stateMutability": "nonpayable",
            "type": "function"
        },
        {
            "inputs": [
                {
                    "internalType": "bytes32",
                    "name": "role",
                    "type": "bytes32"
                },
                {
                    "internalType": "address",
                    "name": "account",
                    "type": "address"
                }
            ],
            "name": "hasRole",
            "outputs": [
                {
                    "internalType": "bool",
                    "name": "",
                    "type": "bool"
                }
            ],
            "stateMutability": "view",
            "type": "function"
        },
        {
            "inputs": [
                {
                    "internalType": "uint256",
                    "name": "_id",
                    "type": "uint256"
                }
            ],
            "name": "removeContent",
            "outputs": [],
            "stateMutability": "nonpayable",
            "type": "function"
        },
        {
            "inputs": [
                {
                    "internalType": "bytes32",
                    "name": "role",
                    "type": "bytes32"
                },
                {
                    "internalType": "address",
                    "name": "callerConfirmation",
                    "type": "address"
                }
            ],
            "name": "renounceRole",
            "outputs": [],
            "stateMutability": "nonpayable",
            "type": "function"
        },
        {
            "inputs": [
                {
                    "internalType": "bytes32",
                    "name": "role",
                    "type": "bytes32"
                },
                {
                    "internalType": "address",
                    "name": "account",
                    "type": "address"
                }
            ],
            "name": "revokeRole",
            "outputs": [],
            "stateMutability": "nonpayable",
            "type": "function"
        },
        {
            "inputs": [
                {
                    "internalType": "bytes4",
                    "name": "interfaceId",
                    "type": "bytes4"
                }
            ],
            "name": "supportsInterface",
            "outputs": [
                {
                    "internalType": "bool",
                    "name": "",
                    "type": "bool"
                }
            ],
            "stateMutability": "view",
            "type": "function"
        },
        {
            "inputs": [
                {
                    "internalType": "uint256",
                    "name": "_id",
                    "type": "uint256"
                },
                {
                    "internalType": "string",
                    "name": "_hash",
                    "type": "string"
                }
            ],
            "name": "verifyContent",
            "outputs": [
                {
                    "internalType": "bool",
                    "name": "",
                    "type": "bool"
                }
            ],
            "stateMutability": "view",
            "type": "function"
        }
    ],
    "bytecode": "0x608060405234801561001057600080fd5b506100246000801b3361005b60201b60201c565b506100557fa49807205ce4d355092ef5a8a18f56e8913cf4a201fbe287825b095693c217753361005b60201b60201c565b506101ca565b600061006d838361015860201b60201c565b61014d57600160008085815260200190815260200160002060000160008473ffffffffffffffffffffffffffffffffffffffff1673ffffffffffffffffffffffffffffffffffffffff16815260200190815260200160002060006101000a81548160ff0219169083151502179055506100ea6101c260201b60201c565b73ffffffffffffffffffffffffffffffffffffffff168273ffffffffffffffffffffffffffffffffffffffff16847f2f8788117e7eff1d82e926ec794901d17c78024a50270940304540a733656f0d60405160405180910390a460019050610152565b600090505b92915050565b600080600084815260200190815260200160002060000160008373ffffffffffffffffffffffffffffffffffffffff1673ffffffffffffffffffffffffffffffffffffffff16815260200190815260200160002060009054906101000a900460ff16905092915050565b600033905090565b6117aa806101d96000396000f3fe608060405234801561001057600080fd5b50600436106100cf5760003560e01c806391d148541161008c578063cc45969611610066578063cc45969614610226578063d547741f14610244578063e5f4640614610260578063f761d00814610290576100cf565b806391d14854146101a6578063a217fddf146101d6578063b5ecf912146101f4576100cf565b806301ffc9a7146100d45780630f64253d14610104578063248a9ca3146101205780632f2ff15d1461015057806336568abe1461016c57806375b238fc14610188575b600080fd5b6100ee60048036038101906100e99190610ca3565b6102ac565b6040516100fb9190610ceb565b60405180910390f35b61011e60048036038101906101199190610d3c565b610326565b005b61013a60048036038101906101359190610d9f565b61044b565b6040516101479190610ddb565b60405180910390f35b61016a60048036038101906101659190610e54565b61046a565b005b61018660048036038101906101819190610e54565b61048c565b005b610190610507565b60405161019d9190610ddb565b60405180910390f35b6101c060048036038101906101bb9190610e54565b61052b565b6040516101cd9190610ceb565b60405180910390f35b6101de610595565b6040516101eb9190610ddb565b60405180910390f35b61020e60048036038101906102099190610d3c565b61059c565b60405161021d93929190610f33565b60405180910390f35b61022e6106f6565b60405161023b9190610f87565b60405180910390f35b61025e60048036038101906102599190610e54565b6106fc565b005b61027a600480360381019061027591906110d7565b61071e565b6040516102879190610ceb565b60405180910390f35b6102aa60048036038101906102a59190611133565b61078c565b005b60007f7965db0b000000000000000000000000000000000000000000000000000000007bffffffffffffffffffffffffffffffffffffffffffffffffffffffff1916827bffffffffffffffffffffffffffffffffffffffffffffffffffffffff1916148061031f575061031e82610920565b5b9050919050565b6103507fa49807205ce4d355092ef5a8a18f56e8913cf4a201fbe287825b095693c217753361052b565b61038f576040517f08c379a00000000000000000000000000000000000000000000000000000000081526004016103869061121d565b60405180910390fd5b60025481106103d3576040517f08c379a00000000000000000000000000000000000000000000000000000000081526004016103ca90611289565b60405180910390fd5b60016000828152602001908152602001600020600080820160006103f79190610bda565b6001820160006104079190610bda565b6002820160006101000a81549073ffffffffffffffffffffffffffffffffffffffff0219169055505060026000815480929190610443906112d8565b919050555050565b6000806000838152602001908152602001600020600101549050919050565b6104738261044b565b61047c8161098a565b610486838361099e565b50505050565b610494610a8f565b73ffffffffffffffffffffffffffffffffffffffff168173ffffffffffffffffffffffffffffffffffffffff16146104f8576040517f6697b23200000000000000000000000000000000000000000000000000000000815260040160405180910390fd5b6105028282610a97565b505050565b7fa49807205ce4d355092ef5a8a18f56e8913cf4a201fbe287825b095693c2177581565b600080600084815260200190815260200160002060000160008373ffffffffffffffffffffffffffffffffffffffff1673ffffffffffffffffffffffffffffffffffffffff16815260200190815260200160002060009054906101000a900460ff16905092915050565b6000801b81565b60016020528060005260406000206000915090508060000180546105bf90611330565b80601f01602080910402602001604051908101604052809291908181526020018280546105eb90611330565b80156106385780601f1061060d57610100808354040283529160200191610638565b820191906000526020600020905b81548152906001019060200180831161061b57829003601f168201915b50505050509080600101805461064d90611330565b80601f016020809104026020016040519081016040528092919081815260200182805461067990611330565b80156106c65780601f1061069b576101008083540402835291602001916106c6565b820191906000526020600020905b8154815290600101906020018083116106a957829003601f168201915b5050505050908060020160009054906101000a900473ffffffffffffffffffffffffffffffffffffffff16905083565b60025481565b6107058261044b565b61070e8161098a565b6107188383610a97565b50505050565b600081604051602001610731919061139d565b604051602081830303815290604052805190602001206001600085815260200190815260200160002060000160405160200161076d919061144c565b6040516020818303038152906040528051906020012014905092915050565b6107b67fa49807205ce4d355092ef5a8a18f56e8913cf4a201fbe287825b095693c217753361052b565b6107f5576040517f08c379a00000000000000000000000000000000000000000000000000000000081526004016107ec9061121d565b60405180910390fd5b60405180606001604052808381526020018281526020013373ffffffffffffffffffffffffffffffffffffffff16815250600160006002548152602001908152602001600020600082015181600001908161085091906115fa565b50602082015181600101908161086691906115fa565b5060408201518160020160006101000a81548173ffffffffffffffffffffffffffffffffffffffff021916908373ffffffffffffffffffffffffffffffffffffffff1602179055509050503373ffffffffffffffffffffffffffffffffffffffff166002547f0bb9159fb996347a842a58609f82eb2898850d8ff5c024226d99e4e2e79f764b84846040516108fc9291906116cc565b60405180910390a36002600081548092919061091790611703565b91905055505050565b60007f01ffc9a7000000000000000000000000000000000000000000000000000000007bffffffffffffffffffffffffffffffffffffffffffffffffffffffff1916827bffffffffffffffffffffffffffffffffffffffffffffffffffffffff1916149050919050565b61099b81610996610a8f565b610b89565b50565b60006109aa838361052b565b610a8457600160008085815260200190815260200160002060000160008473ffffffffffffffffffffffffffffffffffffffff1673ffffffffffffffffffffffffffffffffffffffff16815260200190815260200160002060006101000a81548160ff021916908315150217905550610a21610a8f565b73ffffffffffffffffffffffffffffffffffffffff168273ffffffffffffffffffffffffffffffffffffffff16847f2f8788117e7eff1d82e926ec794901d17c78024a50270940304540a733656f0d60405160405180910390a460019050610a89565b600090505b92915050565b600033905090565b6000610aa3838361052b565b15610b7e57600080600085815260200190815260200160002060000160008473ffffffffffffffffffffffffffffffffffffffff1673ffffffffffffffffffffffffffffffffffffffff16815260200190815260200160002060006101000a81548160ff021916908315150217905550610b1b610a8f565b73ffffffffffffffffffffffffffffffffffffffff168273ffffffffffffffffffffffffffffffffffffffff16847ff6391f5c32d9c69d2a47ea670b442974b53935d1edc7fd64eb21e047a839171b60405160405180910390a460019050610b83565b600090505b92915050565b610b93828261052b565b610bd65780826040517fe2517d3f000000000000000000000000000000000000000000000000000000008152600401610bcd92919061174b565b60405180910390fd5b5050565b508054610be690611330565b6000825580601f10610bf85750610c17565b601f016020900490600052602060002090810190610c169190610c1a565b5b50565b5b80821115610c33576000816000905550600101610c1b565b5090565b6000604051905090565b600080fd5b600080fd5b60007fffffffff0000000000000000000000000000000000000000000000000000000082169050919050565b610c8081610c4b565b8114610c8b57600080fd5b50565b600081359050610c9d81610c77565b92915050565b600060208284031215610cb957610cb8610c41565b5b6000610cc784828501610c8e565b91505092915050565b60008115159050919050565b610ce581610cd0565b82525050565b6000602082019050610d006000830184610cdc565b92915050565b6000819050919050565b610d1981610d06565b8114610d2457600080fd5b50565b600081359050610d3681610d10565b92915050565b600060208284031215610d5257610d51610c41565b5b6000610d6084828501610d27565b91505092915050565b6000819050919050565b610d7c81610d69565b8114610d8757600080fd5b50565b600081359050610d9981610d73565b92915050565b600060208284031215610db557610db4610c41565b5b6000610dc384828501610d8a565b91505092915050565b610dd581610d69565b82525050565b6000602082019050610df06000830184610dcc565b92915050565b600073ffffffffffffffffffffffffffffffffffffffff82169050919050565b6000610e2182610df6565b9050919050565b610e3181610e16565b8114610e3c57600080fd5b50565b600081359050610e4e81610e28565b92915050565b60008060408385031215610e6b57610e6a610c41565b5b6000610e7985828601610d8a565b9250506020610e8a85828601610e3f565b9150509250929050565b600081519050919050565b600082825260208201905092915050565b60005b83811015610ece578082015181840152602081019050610eb3565b60008484015250505050565b6000601f19601f8301169050919050565b6000610ef682610e94565b610f008185610e9f565b9350610f10818560208601610eb0565b610f1981610eda565b840191505092915050565b610f2d81610e16565b82525050565b60006060820190508181036000830152610f4d8186610eeb565b90508181036020830152610f618185610eeb565b9050610f706040830184610f24565b949350505050565b610f8181610d06565b82525050565b6000602082019050610f9c6000830184610f78565b92915050565b600080fd5b600080fd5b7f4e487b7100000000000000000000000000000000000000000000000000000000600052604160045260246000fd5b610fe482610eda565b810181811067ffffffffffffffff8211171561100357611002610fac565b5b80604052505050565b6000611016610c37565b90506110228282610fdb565b919050565b600067ffffffffffffffff82111561104257611041610fac565b5b61104b82610eda565b9050602081019050919050565b82818337600083830152505050565b600061107a61107584611027565b61100c565b90508281526020810184848401111561109657611095610fa7565b5b6110a1848285611058565b509392505050565b600082601f8301126110be576110bd610fa2565b5b81356110ce848260208601611067565b91505092915050565b600080604083850312156110ee576110ed610c41565b5b60006110fc85828601610d27565b925050602083013567ffffffffffffffff81111561111d5761111c610c46565b5b611129858286016110a9565b9150509250929050565b6000806040838503121561114a57611149610c41565b5b600083013567ffffffffffffffff81111561116857611167610c46565b5b611174858286016110a9565b925050602083013567ffffffffffffffff81111561119557611194610c46565b5b6111a1858286016110a9565b9150509250929050565b7f4163636573732064656e6965643a2052657175697265732041444d494e5f524f60008201527f4c45000000000000000000000000000000000000000000000000000000000000602082015250565b6000611207602283610e9f565b9150611212826111ab565b604082019050919050565b60006020820190508181036000830152611236816111fa565b9050919050565b7f436f6e74656e7420646f6573206e6f7420657869737400000000000000000000600082015250565b6000611273601683610e9f565b915061127e8261123d565b602082019050919050565b600060208201905081810360008301526112a281611266565b9050919050565b7f4e487b7100000000000000000000000000000000000000000000000000000000600052601160045260246000fd5b60006112e382610d06565b9150600082036112f6576112f56112a9565b5b600182039050919050565b7f4e487b7100000000000000000000000000000000000000000000000000000000600052602260045260246000fd5b6000600282049050600182168061134857607f821691505b60208210810361135b5761135a611301565b5b50919050565b600081905092915050565b600061137782610e94565b6113818185611361565b9350611391818560208601610eb0565b80840191505092915050565b60006113a9828461136c565b915081905092915050565b60008190508160005260206000209050919050565b600081546113d681611330565b6113e08186611361565b945060018216600081146113fb576001811461141057611443565b60ff1983168652811515820286019350611443565b611419856113b4565b60005b8381101561143b5781548189015260018201915060208101905061141c565b838801955050505b50505092915050565b600061145882846113c9565b915081905092915050565b60006020601f8301049050919050565b600082821b905092915050565b6000600883026114b07fffffffffffffffffffffffffffffffffffffffffffffffffffffffffffffffff82611473565b6114ba8683611473565b95508019841693508086168417925050509392505050565b6000819050919050565b60006114f76114f26114ed84610d06565b6114d2565b610d06565b9050919050565b6000819050919050565b611511836114dc565b61152561151d826114fe565b848454611480565b825550505050565b600090565b61153a61152d565b611545818484611508565b505050565b5b818110156115695761155e600082611532565b60018101905061154b565b5050565b601f8211156115ae5761157f816113b4565b61158884611463565b81016020851015611597578190505b6115ab6115a385611463565b83018261154a565b50505b505050565b600082821c905092915050565b60006115d1600019846008026115b3565b1980831691505092915050565b60006115ea83836115c0565b9150826002028217905092915050565b61160382610e94565b67ffffffffffffffff81111561161c5761161b610fac565b5b6116268254611330565b61163182828561156d565b600060209050601f8311600181146116645760008415611652578287015190505b61165c85826115de565b8655506116c4565b601f198416611672866113b4565b60005b8281101561169a57848901518255600182019150602085019450602081019050611675565b868310156116b757848901516116b3601f8916826115c0565b8355505b6001600288020188555050505b505050505050565b600060408201905081810360008301526116e68185610eeb565b905081810360208301526116fa8184610eeb565b90509392505050565b600061170e82610d06565b91507fffffffffffffffffffffffffffffffffffffffffffffffffffffffffffffffff82036117405761173f6112a9565b5b600182019050919050565b60006040820190506117606000830185610f24565b61176d6020830184610dcc565b939250505056fea26469706673582212201486b0bad1358422f4fc121d21f023b3ac97c5d8dfcaea3188927d5a7c5dc7e264736f6c634300081c0033",
    "linkReferences": {},
    "deployedLinkReferences": {}
}